:100000000C942A000C9447000C9447000C94470071
:100010000C9447000C9447000C9447000C94470044
:100020000C9447000C9447000C9447000C94470034
:100030000C9447000C9447000C9447000C94470024
:100040000C9447000C9447000C9447000C94470014
:100050000C94470011241FBECFE5D8E0DEBFCDBF12
:1000600010E0A0E6B0E0EEE2F9E202C005900D92E9
:10007000A237B107D9F710E0A2E7B0E001C01D92A6
:10008000A737B107E1F70E94BD130C9495140C94A7
:100090000000EF92FF920F931F937B018C0120E0F1
:1000A00030E040E05FE40E94F50388238CF0C80153
:1000B000B70120E030E040E05FE40E94C1010E940F
:1000C00055049B01AC01205030404040504806C0D0
:1000D000C801B7010E9455049B01AC01B901CA01D6
:1000E0001F910F91FF90EF900895A0E0B0E0EBE733
:1000F000F0E00C945E14DC012B01FA019C9192302B
:1001000008F439C1EB018881823008F433C194309E
:1001100069F4843009F02FC111969C91119789815F
:10012000981709F428C1A0E6B0E025C1843009F48D
:1001300021C18230A9F4923009F01DC19A01AD01AC
:1001400088E0EA010990AE01E90109929E0181501F
:10015000C1F7E201898111969C918923818308C1AD
:10016000923009F407C112962D903C901397EB0141
:100170008A819B811496AD90BD90CD90DC901797AD
:10018000EC80FD800E811F819101281B390BB90184
:1001900037FF04C066277727621B730B6032710537
:1001A0000CF061C0121613066CF537014801062EDB
:1001B00004C096948794779467940A94D2F721E0C8
:1001C00030E040E050E004C0220F331F441F551FB1
:1001D0006A95D2F721503040404050402E213F21B7
:1001E00040235123211531054105510521F021E01E
:1001F00030E040E050E079018A01E628F72808293C
:1002000019293CC0232BD1F1260E371E350146019A
:10021000062E04C096948794779467940A94D2F734
:1002200021E030E040E050E004C0220F331F441FC3
:10023000551F6A95D2F721503040404050402A2146
:100240003B214C215D21211531054105510521F04E
:1002500021E030E040E050E059016A01A628B728CB
:10026000C828D9280BC0821593052CF01C01AA249C
:10027000BB24650103C0EE24FF24870111969C91E5
:10028000D20111968C91981709F445C0992339F041
:10029000A80197012A193B094C095D0906C0A6016E
:1002A00095012E193F09400B510B57FD08C01182D3
:1002B0003382228224833583468357831DC081E0A5
:1002C00081833382228288279927DC01821B930B4A
:1002D000A40BB50B84839583A683B7830DC0220F2F
:1002E000331F441F551F24833583468357838281E0
:1002F000938101979383828324813581468157813D
:10030000DA01C9010197A109B1098F5F9F4FAF4F72
:10031000BF4328F30BC0918333822282EA0CFB1C7B
:100320000C1D1D1DE482F5820683178383E0808304
:10033000248135814681578157FF1AC0C901AA27F8
:1003400097FDA095BA2F81709070A070B0705695EF
:10035000479537952795822B932BA42BB52B848318
:100360009583A683B7838281938101969383828349
:10037000DF0101C0D201CD01CDB7DEB7E2E10C94BF
:100380007A14A0E2B0E0E7ECF1E00C946A1469831F
:100390007A838B839C832D833E834F835887E9E048
:1003A000EE2EF12CEC0EFD1ECE010196B7010E943F
:1003B0007E058E010F5E1F4FCE010596B8010E948B
:1003C0007E058A8991E089278A8BC701B801AE0131
:1003D000475E5F4F0E9475000E94A904A096E6E068
:1003E0000C948614A0E2B0E0E8EFF1E00C946A14FB
:1003F00069837A838B839C832D833E834F835887C5
:10040000F9E0EF2EF12CEC0EFD1ECE010196B701A6
:100410000E947E058E010F5E1F4FCE010596B8012A
:100420000E947E05C701B801AE01475E5F4F0E9482
:1004300075000E94A904A096E6E00C948614A0E240
:10044000B0E0E5E2F2E00C945E1469837A838B837A
:100450009C832D833E834F835887CE010196BE0136
:10046000675F7F4F0E947E05CE010596BE016F5EDD
:100470007F4F0E947E059985923088F0898982306D
:10048000C8F0943019F4823051F404C0843029F457
:10049000923081F480E690E0C6C0923049F420E0CA
:1004A0009A858A89981321E02A87CE010996BBC0D4
:1004B000823049F420E09A858A89981321E02A8BBA
:1004C000CE014196B0C02D843E844F8458886D88FB
:1004D0007E888F88988CEE24FF248701AA24BB2471
:1004E000650140E050E060E070E0E0E0F0E0C10174
:1004F00081709070892BE9F0E60CF71C081D191D1E
:100500009A01AB012A0D3B1D4C1D5D1D80E090E062
:10051000A0E0B0E0E614F7040805190520F481E036
:1005200090E0A0E0B0E0BA01A901480F591F6A1F8E
:100530007B1FAA0CBB1CCC1CDD1C97FE08C081E0F5
:1005400090E0A0E0B0E0A82AB92ACA2ADB2A3196B6
:10055000E032F10549F0660C771C881C991C569412
:10056000479437942794C3CFFA85EA892B893C892D
:100570008B859C85280F391F2E5F3F4F17C0CA01FE
:1005800081709070892B61F016950795F794E79428
:1005900080E090E0A0E0B0E8E82AF92A0A2B1B2BC3
:1005A00076956795579547952F5F3F4F77FDE7CF36
:1005B0000CC0440F551F661F771F17FD4160EE0CDE
:1005C000FF1C001F111F21503040403090E05907A0
:1005D00090E0690790E4790760F32B8F3C8FDB0193
:1005E000CA018F779070A070B07080349105A1051A
:1005F000B10561F447FD0AC0E114F10401051105DC
:1006000029F0405C5F4F6F4F7F4F40781A8EFE1786
:1006100011F081E08A8F4D8F5E8F6F8F78A383E01A
:10062000898FCE0149960E94A904A096E2E10C941C
:100630007A14A8E1B0E0EFE1F3E00C94661469836A
:100640007A838B839C832D833E834F835887B9E0C5
:10065000EB2EF12CEC0EFD1ECE010196B7010E948F
:100660007E058E010F5E1F4FCE010596B8010E94D8
:100670007E052985223008F47EC03989323010F495
:10068000B8017CC08A859A8989278A87243011F02D
:10069000223031F4231709F06EC060E670E06EC0BE
:1006A000343039F41D861E861F86188A1C861B86E8
:1006B00004C0323021F484E08987B7015FC02B8504
:1006C0003C858B899C89281B390B3C872B87ED84C3
:1006D000FE840F851889AD88BE88CF88D88CEA142F
:1006E000FB040C051D0540F4EE0CFF1C001F111F40
:1006F000215030403C872B8720E030E040E050E044
:1007000080E090E0A0E0B0E460E070E0EA14FB0478
:100710000C051D0540F0282B392B4A2B5B2BEA18C2
:10072000FB080C091D09B695A79597958795EE0CC2
:10073000FF1C001F111F6F5F7F4F6F31710531F775
:10074000DA01C9018F779070A070B0708034910584
:10075000A105B10561F427FD0AC0E114F10401050A
:10076000110529F0205C3F4F4F4F5F4F20782D87B8
:100770003E874F87588BBE01675F7F4FCB010E943A
:10078000A9046896EAE00C948214A8E1B0E0EBECCE
:10079000F3E00C946A1469837A838B839C832D83A2
:1007A0003E834F83588789E0E82EF12CEC0EFD1E26
:1007B000CE010196B7010E947E058E010F5E1F4F8C
:1007C000CE010596B8010E947E058985823040F0F1
:1007D0008989823028F0C701B8010E94F60501C05E
:1007E0008FEF6896E6E00C948614A8E1B0E0EBEF9A
:1007F000F3E00C946A1469837A838B839C832D8342
:100800003E834F83588789E0E82EF12CEC0EFD1EC5
:10081000CE010196B7010E947E058E010F5E1F4F2B
:10082000CE010596B8010E947E058985823040F090
:100830008989823028F0C701B8010E94F60501C0FD
:100840008FEF6896E6E00C948614A8E1B0E0EBE246
:10085000F4E00C946A1469837A838B839C832D83E0
:100860003E834F83588789E0E82EF12CEC0EFD1E65
:10087000CE010196B7010E947E058E010F5E1F4FCB
:10088000CE010596B8010E947E058985823040F030
:100890008989823028F0C701B8010E94F60501C09D
:1008A00081E06896E6E00C948614ACE0B0E0EBE5FD
:1008B000F4E00C946E1469837A838B839C83CE015D
:1008C0000196BE016B5F7F4F0E947E058D81823055
:1008D00061F1823050F1843021F48E81882351F10E
:1008E0002EC02F81388537FD20C06E812F31310514
:1008F0001CF06623F9F023C08EE190E0821B930B7D
:1009000029853A854B855C8504C056954795379572
:1009100027958A95D2F76623B1F05095409530958A
:1009200021953F4F4F4F5F4F0EC020E030E040E039
:1009300050E009C02FEF3FEF4FEF5FE704C020E02A
:1009400030E040E050E8B901CA012C96E2E00C9496
:100950008A14DF92EF92FF920F931F93FC01E480C1
:10096000F58006811781D1808081823048F480E053
:1009700090E0A0E1B0E0E82AF92A0A2B1B2BA5C0E1
:10098000843009F49FC0823021F4EE24FF248701D3
:1009900005C0E114F1040105110519F4E0E0F0E0EF
:1009A00096C0628173819FEF623879070CF05BC05B
:1009B00022E83FEF261B370B2A3131052CF020E0CF
:1009C00030E040E050E02AC0B801A701022E04C088
:1009D00076956795579547950A94D2F781E090E010
:1009E000A0E0B0E004C0880F991FAA1FBB1F2A9582
:1009F000D2F70197A109B1098E219F21A023B1232C
:100A00000097A105B10521F081E090E0A0E0B0E001
:100A10009A01AB01282B392B4A2B5B2BDA01C90138
:100A20008F779070A070B07080349105A105B105EA
:100A300039F427FF09C0205C3F4F4F4F5F4F04C080
:100A4000215C3F4F4F4F5F4FE0E0F0E02030A0E0EF
:100A50003A07A0E04A07A0E45A0710F0E1E0F0E00E
:100A600079018A0127C06038710564F5FB01E158FE
:100A7000FF4FD801C7018F779070A070B07080349D
:100A80009105A105B10539F4E7FE0DC080E490E0C1
:100A9000A0E0B0E004C08FE390E0A0E0B0E0E80E9A
:100AA000F91E0A1F1B1F17FF05C016950795F7941F
:100AB000E794319687E016950795F794E7948A9521
:100AC000D1F705C0EE24FF248701EFEFF0E06E2F91
:100AD000679566276795902F9F77D794DD24D794E5
:100AE0008E2F8695492F462B582F5D29B701CA01B5
:100AF0001F910F91FF90EF90DF900895FC01DB01B3
:100B0000408151812281622F6F7770E0221F22275E
:100B1000221F9381892F880F822B282F30E0991F65
:100B20009927991F11969C93119721153105A9F5C5
:100B3000411551056105710511F482E037C082E865
:100B40009FEF13969C938E9312979A01AB0167E0E7
:100B5000220F331F441F551F6A95D1F783E08C93F2
:100B60000DC0220F331F441F551F12968D919C916B
:100B70001397019713969C938E931297203080E0E1
:100B8000380780E0480780E4580758F314962D93FF
:100B90003D934D935C93179708952F3F310579F45A
:100BA000411551056105710519F484E08C93089590
:100BB00064FF03C081E08C9312C01C9210C02F57B9
:100BC000304013963C932E93129783E08C9387E0EA
:100BD000440F551F661F771F8A95D1F770641496CE
:100BE0004D935D936D937C93179708951F93DC014C
:100BF000FB019C91923008F447C08081823008F458
:100C000043C0943051F411961C91843099F5818140
:100C1000682F70E0611B71093FC0843021F0923071
:100C200031F48230B9F18181882389F12DC0119688
:100C30001C9111978230F1F081811817D9F4129626
:100C40002D913C911397828193818217930794F0A1
:100C500028173907BCF014968D919D910D90BC9189
:100C6000A02D2481358146815781281739074A07ED
:100C70005B0718F4112341F00AC082179307A407F9
:100C8000B50740F4112319F061E070E005C06FEF83
:100C90007FEF02C060E070E0CB011F910895DF9309
:100CA000CF9300D00F92CDB7DEB79B838A8383E0CA
:100CB00065E040E00E940D0983E066E040E00E94AC
:100CC0000D0983E067E040E00E940D0983E065E0E4
:100CD00041E00E940D0A83E066E041E00E940D0AB7
:100CE00083E067E041E00E940D0A19821BC0898100
:100CF000882F90E09C01220F331F8A819B81FC0189
:100D0000E20FF31F10828981882F90E09C01220F4F
:100D1000331F8A819B81FC01E20FF31F11828981BD
:100D20008F5F89838981833010F30F900F900F902C
:100D3000CF91DF910895DF93CF9300D00F92CDB77D
:100D4000DEB79B838A838A819B810E94F20645C01D
:100D50008981882F90E09C01220F331F8A819B811B
:100D6000FC01E20FF31F40818981882F90E09C01F4
:100D7000220F331F8A819B81FC01E20FF31F8181C7
:100D8000481741F18981882F90E09C01220F331F81
:100D90008A819B81FC01E20FF31F40818981882FAA
:100DA00090E09C01220F331F8A819B81FC01E20F9E
:100DB000F31F8181841770F48981882F90E0880F58
:100DC000991FFC01E859FF4F0190F081E02D82E767
:100DD00090E0099589818F5F89838981833008F448
:100DE000B7CFB1CF0F931F93DF93CF93CDB7DEB7BC
:100DF000EE970FB6F894DEBF0FBECDBF99AF88AFA8
:100E0000CE01C5969BAF8AAFEEE6F0E0FDAFECAF4A
:100E1000F3E0FEAFECADFDAD00808CAD9DAD019675
:100E20009DAF8CAFEAADFBAD00828AAD9BAD019664
:100E30009BAF8AAF9EAD91509EAFEEADEE2351F7C2
:100E40001CAA17C08CA9082F10E08CA9982F9B5FB3
:100E500083E0692F0E940C0C982F81E0292F28270E
:100E6000CE01C596FC01E00FF11F20838CA98F5F96
:100E70008CAB8CA9833030F380E090E0A8ECB2E436
:100E80008DA79EA7AFA7B8AB6DA57EA58FA598A986
:100E90002BEA3AEA4AE250E40E941F02DC01CB014D
:100EA00089A79AA7ABA7BCA769A57AA58BA59CA57E
:100EB00020E030E040E85FE30E94250488231CF432
:100EC00081E088A791C069A57AA58BA59CA520E0A3
:100ED00030E04FE753E40E94C50318160CF07BC0C6
:100EE0006DA57EA58FA598A920E030E04AE754E4DF
:100EF0000E941903DC01CB018CA39DA3AEA3BFA369
:100F00006CA17DA18EA19FA120E030E04AEF54E4C6
:100F10000E941F02DC01CB0188A399A3AAA3BBA353
:100F200068A179A18AA19BA120E030E040E85FE3BD
:100F30000E94250488232CF481E090E09F8F8E8FFF
:100F40003FC068A179A18AA19BA120E03FEF4FE7B4
:100F500057E40E94C50318164CF56CA17DA18EA123
:100F60009FA120E030E040E251E40E941F02DC013A
:100F7000CB01BC01CD010E944900DC01CB019F8F58
:100F80008E8F0FC088EC90E09D8F8C8F8C8D9D8D07
:100F90000197F1F79D8F8C8F8E8D9F8D01979F8F7D
:100FA0008E8F8E8D9F8D009769F724C068A179A1DF
:100FB0008AA19BA10E944900DC01CB019F8F8E8FEB
:100FC0008E8D9F8D9B8F8A8F8A8D9B8D0197F1F7D8
:100FD0009B8F8A8F0FC069A57AA58BA59CA50E94BF
:100FE0004900DC01CB0188A788A5898F898D8A9566
:100FF000F1F7898F1BAAE5C01AAA1FC08AA9282F5A
:1010000030E0CE01C596FC01E20FF31F10818AA9E2
:10101000982F9B5F83E0692F0E940C0C181751F4E6
:101020008AA9282F30E0CE01C596FC01E20FF31FFC
:101030008FEF80838AA98F5F8AAB8AA98330F0F211
:1010400080E090E0A8ECB2E48D8B9E8BAF8BB88FE4
:101050006D897E898F89988D2BEA3AEA4AE250E4BD
:101060000E941F02DC01CB01898B9A8BAB8BBC8B5E
:1010700069897A898B899C8920E030E040E85FE3C8
:101080000E94250488231CF481E0888B91C0698923
:101090007A898B899C8920E030E04FE753E40E94F5
:1010A000C50318160CF07BC06D897E898F89988DD9
:1010B00020E030E04AE754E40E941903DC01CB0150
:1010C0008C879D87AE87BF876C857D858E859F8544
:1010D00020E030E04AEF54E40E941F02DC01CB0123
:1010E00088879987AA87BB87688579858A859B8544
:1010F00020E030E040E85FE30E94250488232CF4E0
:1011000081E090E09F838E833FC0688579858A85E2
:101110009B8520E03FEF4FE757E40E94C503181678
:101120004CF56C857D858E859F8520E030E040E222
:1011300051E40E941F02DC01CB01BC01CD010E94E1
:101140004900DC01CB019F838E830FC088EC90E0C7
:101150009D838C838C819D810197F1F79D838C8386
:101160008E819F8101979F838E838E819F810097BF
:1011700069F724C0688579858A859B850E94490026
:10118000DC01CB019F838E838E819F819B838A8329
:101190008A819B810197F1F79B838A830FC06989BC
:1011A0007A898B899C890E944900DC01CB01888B5C
:1011B0008889898389818A95F1F789838BA98F5FD3
:1011C0008BAB8BA9833608F417CF19AA18C089A94D
:1011D000882F90E09C01220F331F88AD99ADDC0170
:1011E000A20FB31F89A9282F30E0CE01C596FC01BC
:1011F000E20FF31F80818C9389A98F5F89AB89A946
:10120000833028F3EE960FB6F894DEBF0FBECDBF45
:10121000CF91DF911F910F910895DF93CF93CDB7B9
:10122000DEB727970FB6F894DEBF0FBECDBF898318
:101230006A834B838B81882309F074C08981282FAE
:1012400030E03F832E838E819F818130910559F15B
:101250002E813F81223031052CF48E819F810097B1
:1012600069F0D2C02E813F812230310589F18E8113
:101270009F818330910509F440C0C6C0AAE3B0E065
:10128000EAE3F0E08081482F8A81282F30E081E076
:1012900090E0022E02C0880F991F0A94E2F7809511
:1012A00084238C93B1C0A7E3B0E0E7E3F0E0808152
:1012B000482F8A81282F30E081E090E0022E02C082
:1012C000880F991F0A94E2F7809584238C939CC021
:1012D000A4E3B0E0E4E3F0E08081482F8A81282F86
:1012E00030E081E090E0022E02C0880F991F0A943E
:1012F000E2F7809584238C9387C0A1E3B0E0E1E31B
:10130000F0E08081482F8A81282F30E081E090E052
:10131000022E02C0880F991F0A94E2F78095842359
:101320008C9372C08B81813009F06EC08981282F27
:1013300030E03D832C838C819D818130910549F182
:101340002C813D81223031052CF48C819D810097C8
:1013500061F05AC02C813D812230310571F18C81C0
:101360009D8183309105E9F14FC0AAE3B0E0EAE343
:10137000F0E08081482F8A81282F30E081E090E0E2
:10138000022E02C0880F991F0A94E2F7842B8C93D7
:101390003BC0A7E3B0E0E7E3F0E08081482F8A811B
:1013A000282F30E081E090E0022E02C0880F991FC4
:1013B0000A94E2F7842B8C9327C0A4E3B0E0E4E323
:1013C000F0E08081482F8A81282F30E081E090E092
:1013D000022E02C0880F991F0A94E2F7842B8C9387
:1013E00013C0A1E3B0E0E1E3F0E08081482F8A81FF
:1013F000282F30E081E090E0022E02C0880F991F74
:101400000A94E2F7842B8C9327960FB6F894DEBFEC
:101410000FBECDBFCF91DF910895DF93CF93CDB7AE
:10142000DEB727970FB6F894DEBF0FBECDBF898316
:101430006A834B838B81813009F06FC08981282FAB
:1014400030E03F832E838E819F818130910549F169
:101450002E813F81223031052CF48E819F810097AF
:1014600061F0D2C02E813F812230310571F18E8131
:101470009F8183309105E9F1C7C0ABE3B0E0EBE3B6
:10148000F0E08081482F8A81282F30E081E090E0D1
:10149000022E02C0880F991F0A94E2F7842B8C93C6
:1014A000B3C0A8E3B0E0E8E3F0E08081482F8A8190
:1014B000282F30E081E090E0022E02C0880F991FB3
:1014C0000A94E2F7842B8C939FC0A5E3B0E0E5E398
:1014D000F0E08081482F8A81282F30E081E090E081
:1014E000022E02C0880F991F0A94E2F7842B8C9376
:1014F0008BC0A2E3B0E0E2E3F0E08081482F8A8174
:10150000282F30E081E090E0022E02C0880F991F62
:101510000A94E2F7842B8C9377C08B81882309F09F
:1015200073C08981282F30E03D832C838C819D817D
:101530008130910559F12C813D81223031052CF407
:101540008C819D81009769F05FC02C813D812230A4
:10155000310589F18C819D818330910509F440C06A
:1015600053C0ABE3B0E0EBE3F0E08081482F8A8129
:10157000282F30E081E090E0022E02C0880F991FF2
:101580000A94E2F7809584238C933EC0A8E3B0E0F0
:10159000E8E3F0E08081482F8A81282F30E081E065
:1015A00090E0022E02C0880F991F0A94E2F78095FE
:1015B00084238C9329C0A5E3B0E0E5E3F0E08081CB
:1015C000482F8A81282F30E081E090E0022E02C06F
:1015D000880F991F0A94E2F7809584238C9314C096
:1015E000A2E3B0E0E2E3F0E08081482F8A81282F77
:1015F00030E081E090E0022E02C0880F991F0A942B
:10160000E2F7809584238C9327960FB6F894DEBF7B
:101610000FBECDBFCF91DF910895DF93CF9300D060
:1016200000D0CDB7DEB789836A838981282F30E067
:101630003C832B838B819C818130910549F12B81E7
:101640003C81223031052CF48B819C81009761F024
:101650005AC02B813C812230310571F18B819C81F4
:1016600083309105E9F14FC0ABE3B0E0EBE3F0E08C
:101670008081482F8A81282F30E081E090E0022E7F
:1016800002C0880F991F0A94E2F784278C933BC00D
:10169000A8E3B0E0E8E3F0E08081482F8A81282FBA
:1016A00030E081E090E0022E02C0880F991F0A947A
:1016B000E2F784278C9327C0A5E3B0E0E5E3F0E0F0
:1016C0008081482F8A81282F30E081E090E0022E2F
:1016D00002C0880F991F0A94E2F784278C9313C0E5
:1016E000A2E3B0E0E2E3F0E08081482F8A81282F76
:1016F00030E081E090E0022E02C0880F991F0A942A
:10170000E2F784278C930F900F900F900F90CF915A
:10171000DF910895DF93CF9300D000D0CDB7DEB72F
:1017200089836A838981282F30E03C832B838B81D6
:101730009C8181309105D1F02B813C812230310593
:101740002CF48B819C81009761F01EC02B813C8121
:101750002230310581F08B819C818330910581F0AD
:1017600013C0EAE3F0E08A8180830EC0E7E3F0E093
:101770008A81808309C0E4E3F0E08A81808304C029
:10178000E1E3F0E08A8180830F900F900F900F903B
:10179000CF91DF910895DF93CF9300D000D0CDB7E4
:1017A000DEB789836A838981282F30E03C832B83CD
:1017B0008B819C8181309105D1F02B813C8122303D
:1017C00031052CF48B819C81009761F01EC02B8128
:1017D0003C812230310581F08B819C8183309105E1
:1017E00081F013C0EBE3F0E08A8180830EC0E8E370
:1017F000F0E08A81808309C0E5E3F0E08A8180839C
:1018000004C0E2E3F0E08A8180830F900F900F9094
:101810000F90CF91DF910895DF93CF9300D000D048
:101820000F92CDB7DEB78A836B838A81282F30E091
:101830003D832C834C815D814130510541F18C8188
:101840009D818230910534F42C813D812115310533
:1018500061F052C04C815D814230510551F18C8163
:101860009D8183309105B9F147C0E9E3F0E08081C3
:10187000282F30E08B81882F90E0A90102C0559578
:1018800047958A95E2F7CA018170898335C0E6E3FE
:10189000F0E08081282F30E08B81882F90E0A90133
:1018A00002C0559547958A95E2F7CA0181708983F0
:1018B00023C0E3E3F0E08081282F30E08B81882F84
:1018C00090E0A90102C0559547958A95E2F7CA01B3
:1018D0008170898311C0E0E3F0E08081282F30E03F
:1018E0008B81882F90E0A90102C0559547958A9574
:1018F000E2F7CA018170898389810F900F900F9060
:101900000F900F90CF91DF910895DF93CF93CDB7D4
:10191000DEB72F970FB6F894DEBF0FBECDBF8F870F
:1019200083E060E040E00E940D0A83E061E040E077
:101930000E940D0A82E06F850E94CB0B83E062E07B
:1019400041E00E940D0A80E090E0A0E0B0E48B87C7
:101950009C87AD87BE876B857C858D859E8520E0C5
:1019600030E04AEF54E40E941F02DC01CB018F8378
:101970009887A987BA876F81788589859A8520E0BD
:1019800030E040E85FE30E94250488232CF481E0E6
:1019900090E09E838D833FC06F81788589859A858D
:1019A00020E03FEF4FE757E40E94C50318164CF5BF
:1019B0006B857C858D859E8520E030E040E251E49A
:1019C0000E941F02DC01CB01BC01CD010E94490035
:1019D000DC01CB019E838D830FC088EC90E09C835B
:1019E0008B838B819C810197F1F79C838B838D8105
:1019F0009E8101979E838D838D819E81009769F7DB
:101A000014C06F81788589859A850E944900DC0120
:101A1000CB019E838D838D819E819A838983898169
:101A20009A810197F1F79A83898383E062E040E02D
:101A30000E940D0A2F960FB6F894DEBF0FBECDBFE1
:101A4000CF91DF910895DF93CF93CDB7DEB72F9776
:101A50000FB6F894DEBF0FBECDBF8F8783E060E086
:101A600041E00E940D0A83E061E040E00E940D0A1F
:101A700082E06F850E94CB0B83E062E041E00E9430
:101A80000D0A80E090E0A0E0B0E48B879C87AD87F2
:101A9000BE876B857C858D859E8520E030E04AEF92
:101AA00054E40E941F02DC01CB018F839887A98731
:101AB000BA876F81788589859A8520E030E040E893
:101AC0005FE30E94250488232CF481E090E09E834C
:101AD0008D833FC06F81788589859A8520E03FEFAF
:101AE0004FE757E40E94C50318164CF56B857C85BB
:101AF0008D859E8520E030E040E251E40E941F0287
:101B0000DC01CB01BC01CD010E944900DC01CB010D
:101B10009E838D830FC088EC90E09C838B838B81A8
:101B20009C810197F1F79C838B838D819E81019726
:101B30009E838D838D819E81009769F714C06F818C
:101B4000788589859A850E944900DC01CB019E83B6
:101B50008D838D819E819A83898389819A81019762
:101B6000F1F79A83898383E062E040E00E940D0AE6
:101B70002F960FB6F894DEBF0FBECDBFCF91DF9189
:101B80000895DF93CF93CDB7DEB7E8970FB6F894FB
:101B9000DEBF0FBECDBF80E090E0A0EFB1E48DAB23
:101BA0009EABAFABB8AF6DA97EA98FA998AD20E071
:101BB00030E04AEF54E40E941F02DC01CB0189AB04
:101BC0009AABABABBCAB69A97AA98BA99CA920E065
:101BD00030E040E85FE30E94250488232CF481E094
:101BE00090E098AB8FA73FC069A97AA98BA99CA95F
:101BF00020E03FEF4FE757E40E94C50318164CF56D
:101C00006DA97EA98FA998AD20E030E040E251E4B3
:101C10000E941F02DC01CB01BC01CD010E944900E2
:101C2000DC01CB0198AB8FA70FC088EC90E09EA79A
:101C30008DA78DA59EA50197F1F79EA78DA78FA5CE
:101C400098A9019798AB8FA78FA598A9009769F7D6
:101C500014C069A97AA98BA99CA90E944900DC013A
:101C6000CB0198AB8FA78FA598A99CA78BA78BA515
:101C70009CA50197F1F79CA78BA788E30E94850C90
:101C800080E090E0A0E8BFE38FA398A7A9A7BAA738
:101C90006FA178A589A59AA520E030E04AEF54E429
:101CA0000E941F02DC01CB018BA39CA3ADA3BEA3AA
:101CB0006BA17CA18DA19EA120E030E040E85FE314
:101CC0000E94250488232CF481E090E09AA389A344
:101CD0003FC06BA17CA18DA19EA120E03FEF4FE70B
:101CE00057E40E94C50318164CF56FA178A589A585
:101CF0009AA520E030E040E251E40E941F02DC019E
:101D0000CB01BC01CD010E944900DC01CB019AA3AB
:101D100089A30FC088EC90E098A38F8F8F8D98A136
:101D20000197F1F798A38F8F89A19AA101979AA3A0
:101D300089A389A19AA1009769F714C06BA17CA11E
:101D40008DA19EA10E944900DC01CB019AA389A329
:101D500089A19AA19E8F8D8F8D8D9E8D0197F1F710
:101D60009E8F8D8F8CE00E94850C80E090E0A0E833
:101D7000BFE3898F9A8FAB8FBC8F698D7A8D8B8DE6
:101D80009C8D20E030E04AEF54E40E941F02DC0109
:101D9000CB018D8B9E8BAF8BB88F6D897E898F89A0
:101DA000988D20E030E040E85FE30E94250488231E
:101DB0002CF481E090E09C8B8B8B3FC06D897E89F9
:101DC0008F89988D20E03FEF4FE757E40E94C503CD
:101DD00018164CF5698D7A8D8B8D9C8D20E030E046
:101DE00040E251E40E941F02DC01CB01BC01CD01A5
:101DF0000E944900DC01CB019C8B8B8B0FC088ECCF
:101E000090E09A8B898B89899A890197F1F79A8B4F
:101E1000898B8B899C8901979C8B8B8B8B899C8967
:101E2000009769F714C06D897E898F89988D0E940B
:101E30004900DC01CB019C8B8B8B8B899C89988B17
:101E40008F878F8598890197F1F7988B8F8781E02D
:101E50000E94850C80E090E0A0E0B0E48B879C8736
:101E6000AD87BE876B857C858D859E8520E030E0C3
:101E70004AEF54E40E941F02DC01CB018F83988754
:101E8000A987BA876F81788589859A8520E030E0B7
:101E900040E85FE30E94250488232CF481E090E071
:101EA0009E838D833FC06F81788589859A8520E0E8
:101EB0003FEF4FE757E40E94C50318164CF56B85BA
:101EC0007C858D859E8520E030E040E251E40E94D3
:101ED0001F02DC01CB01BC01CD010E944900DC01E5
:101EE000CB019E838D830FC088EC90E09C838B8315
:101EF0008B819C810197F1F79C838B838D819E81DF
:101F000001979E838D838D819E81009769F714C010
:101F10006F81788589859A850E944900DC01CB0113
:101F20009E838D838D819E819A83898389819A8105
:101F30000197F1F79A838983E8960FB6F894DEBF8C
:101F40000FBECDBFCF91DF910895DF93CF93CDB773
:101F5000DEB782E06FEF0E948A0B83E060E041E031
:101F60000E940D0983E061E041E00E940D0983E0D9
:101F700062E041E00E940D09CF91DF910895DF9367
:101F8000CF9300D00F92CDB7DEB79B838A8319829F
:101F90000EC08981282F30E08A819B81FC01E20FED
:101FA000F31F80810E94230D89818F5F898389813E
:101FB000282F30E08A819B81FC01E20FF31F808192
:101FC000882339F70F900F900F90CF91DF910895EC
:101FD000DF93CF93CDB7DEB760970FB6F894DEBF2F
:101FE0000FBECDBF6D877E878F87988B1C868D85B2
:101FF0009E85AF85B88988879987AA87BB878AE03D
:1020000090E0A0E0B0E08C839D83AE83BF838D859C
:102010009E85AF85B8898A309105A105B105D0F4B8
:102020008D85805D0E94230D7FC08C858F5F8C879E
:1020300088859985AA85BB852C813D814E815F81EC
:10204000BC01CD010E942814DA01C9018887998753
:10205000AA87BB8788859985AA85BB850097A10536
:10206000B10519F78D859E85AF85B88988879987D1
:10207000AA87BB8755C081E090E0A0E0B0E08C83E8
:102080009D83AE83BF831A82198217C08C819D8184
:10209000AE81BF812AE030E040E050E0BC01CD01DC
:1020A0000E94DD13DC01CB018C839D83AE83BF8353
:1020B00089819A8101969A8389838C85882F90E003
:1020C0009C012150304089819A8182179307F4F254
:1020D00088859985AA85BB852C813D814E815F814C
:1020E000BC01CD010E942814DA01C9018B838B81C8
:1020F000805D0E94230D88859985AA85BB852C81EA
:102100003D814E815F81BC01CD010E942814DC011C
:10211000CB0188879987AA87BB878C8581508C875C
:102120008C85882309F0A7CF60960FB6F894DEBFA0
:102130000FBECDBFCF91DF910895DF93CF9300D035
:10214000CDB7DEB789836A838A81882F90E0002427
:10215000969587950794969587950794982F802D47
:10216000982F8981890F80580E94850C0F900F90BD
:10217000CF91DF910895DF93CF93CDB7DEB7279747
:102180000FB6F894DEBF0FBECDBF9C838B836D83EB
:102190004E832F838D81882F90E0880F991F880FA1
:1021A000991F880F991F8A838A81805C0E94850C01
:1021B00019820EC08981282F30E08B819C81FC011F
:1021C000E20FF31F80810E94230D89818F5F898335
:1021D0008981883078F38E816F810E949D108D8176
:1021E0000E94230D27960FB6F894DEBF0FBECDBF19
:1021F000CF91DF910895DF93CF9300D0CDB7DEB7B5
:1022000089836A8389816A810E949D1080E20E948D
:10221000230D0F900F90CF91DF910895DF93CF930F
:1022200000D0CDB7DEB789836A838A8161E00E94DE
:10223000FB10898161E00E949D108EE50E94230DB4
:102240000F900F90CF91DF910895DF93CF9300D03F
:1022500000D0CDB7DEB789836A83898160E00E94B0
:102260009D108A81282F30E03C832B838B819C81B9
:102270008430910509F44FC02B813C812530310514
:10228000D4F48B819C8181309105C9F12B813C81F3
:10229000223031052CF48B819C81009761F152C072
:1022A0002B813C812230310571F18B819C818330FF
:1022B000910569F147C02B813C8127303105B9F187
:1022C0008B819C81883091055CF42B813C81253089
:1022D000310529F18B819C818630910521F132C035
:1022E0002B813C812830310531F18B819C818930F3
:1022F000910529F127C080E30E94230D23C081E3CB
:102300000E94230D1FC082E30E94230D1BC083E3A4
:102310000E94230D17C084E30E94230D13C085E3A0
:102320000E94230D0FC086E30E94230D0BC087E39C
:102330000E94230D07C088E30E94230D03C089E398
:102340000E94230D0F900F900F900F90CF91DF916F
:102350000895DF93CF9300D000D0CDB7DEB7898347
:102360006A83898160E00E949D108A81282F30E075
:102370003C832B838B819C818230910511F12B81D1
:102380003C812330310554F48B819C81009789F086
:102390002B813C812130310581F01EC08B819C81D5
:1023A0008330910591F02B813C812430310589F0F7
:1023B00013C08BE20E94230D0FC08DE20E94230DFB
:1023C0000BC08AE20E94230D07C08FE20E94230DFA
:1023D00003C085E20E94230D0F900F900F900F9085
:1023E000CF91DF910895DF93CF9300D000D00F926B
:1023F000CDB7DEB79B838A83EA81FB818381282F57
:1024000030E03D832C838C819D818230910571F178
:102410002C813D812330310554F48C819D810097BE
:1024200089F02C813D8121303105A9F040C08C819B
:102430009D818330910529F12C813D812430310526
:1024400059F135C0EA81FB819181EA81FB8182816A
:10245000890F89832CC0EA81FB819181EA81FB810C
:102460008281392F381B832F898321C0EA81FB8128
:102470009181EA81FB818281989F802D112489833B
:1024800016C0EA81FB818181EA81FB819281692FFB
:102490000E94FC1389830BC0EA81FB818181EA8160
:1024A000FB819281692F0E94FC13892F8983898186
:1024B0008A3094F089819AE0692F0E940814805D27
:1024C0000E94230D89819AE0692F0E940814892FA8
:1024D000805D0E94230D0AC0898188231CF48DE24F
:1024E0000E94230D8981805D0E94230D0F900F9023
:1024F0000F900F900F90CF91DF910895DF93CF93BE
:1025000000D0CDB7DEB79A838983E981FA818081D3
:102510008823C1F4E981FA818181882F90E00196B6
:102520002AE030E0B9010E941514E981FA81818323
:10253000E981FA818081E981FA819181692F0E9484
:10254000251139C0E981FA8180818130C1F4E981A6
:10255000FA818381882F90E0019625E030E0B9016F
:102560000E941514E981FA818383E981FA818081CF
:10257000E981FA819381692F0E94A9111CC0E98128
:10258000FA8180818230B9F4E981FA818281882FD1
:1025900090E001962AE030E0B9010E941514E9812B
:1025A000FA818283E981FA818081E981FA819281CD
:1025B000692F0E9425110F900F90CF91DF91089500
:1025C000DF93CF9300D0CDB7DEB79A838983E981BB
:1025D000FA8180818823C1F4E981FA818181882F81
:1025E00090E001972AE030E0B9010E941514E981DA
:1025F000FA818183E981FA818081E981FA8191817F
:10260000692F0E94251139C0E981FA8180818130CA
:10261000C1F4E981FA818381882F90E0019725E058
:1026200030E0B9010E941514E981FA818383E981C0
:10263000FA818081E981FA819381692F0E94A91131
:102640001CC0E981FA8180818230B9F4E981FA8184
:102650008281882F90E001972AE030E0B9010E9442
:102660001514E981FA818283E981FA818081E98107
:10267000FA819281692F0E9425110F900F90CF91BE
:10268000DF910895DF93CF9300D0CDB7DEB79A8363
:102690008983E981FA8180818823A1F4E981FA8123
:1026A00080818F5FE981FA818083E981FA812081CD
:1026B000E981FA818081982F9150822F692F0E94A1
:1026C0000E1135C0E981FA8180818130A1F4E98160
:1026D000FA8180818F5FE981FA818083E981FA81C3
:1026E0002081E981FA818081982F9150822F692F72
:1026F0000E940E111CC0E981FA8180818230B9F4F8
:10270000E981FA8180818F5FE981FA818083E981A3
:10271000FA812081E981FA818081982F9150822F5E
:10272000692F0E940E1189819A810E94F3110F90E6
:102730000F90CF91DF910895DF93CF9300D0CDB765
:10274000DEB79A838983E981FA811082E981FA816F
:102750001182E981FA811282E981FA811382E98189
:10276000FA818081E981FA819081692F0E940E119E
:102770000F900F90CF91DF910895DF93CF9300D00A
:1027800000D000D0CDB7DEB70E94A50F0E94C10DCA
:1027900086E0FE013196DF01982F1D929A95E9F7A8
:1027A000CE0101960E944F0682E790E00E949C13A2
:1027B000CE0101960E949B06FBCF629FD001739FC2
:1027C000F001829FE00DF11D649FE00DF11D929FCD
:1027D000F00D839FF00D749FF00D659FF00D99270C
:1027E000729FB00DE11DF91F639FB00DE11DF91F30
:1027F000BD01CF0111240895991B79E004C0991FF0
:10280000961708F0961B881F7A95C9F7809508954A
:1028100087FB082E062687FD819567FD6195ECDF15
:102820000EF4919507FC8195089597FB092E0726D4
:102830000AD077FD04D02ED006D000201AF470956F
:1028400061957F4F0895F6F7909581959F4F089574
:10285000A1E21A2EAA1BBB1BFD010DC0AA1FBB1FA4
:10286000EE1FFF1FA217B307E407F50720F0A21B16
:10287000B30BE40BF50B661F771F881F991F1A9483
:1028800069F760957095809590959B01AC01BD01AD
:10289000CF010895AA1BBB1B51E107C0AA1FBB1F94
:1028A000A617B70710F0A61BB70B881F991F5A95DC
:1028B000A9F780959095BC01CD0108952F923F9284
:1028C0004F925F926F927F928F929F92AF92BF9240
:1028D000CF92DF92EF92FF920F931F93CF93DF93EC
:1028E000CDB7DEB7CA1BDB0B0FB6F894DEBF0FBE49
:1028F000CDBF09942A88398848885F846E847D8496
:102900008C849B84AA84B984C884DF80EE80FD8097
:102910000C811B81AA81B981CE0FD11D0FB6F8940D
:0E292000DEBF0FBECDBFED010895F894FFCFCE
:10292E0000000000000000007E12E01242130000C2
:02293E00000097
:00000001FF
